{
  "address": "0x5FbDB2315678afecb367f032d93F642f64180aa3",
  "abi": [
    {
      "inputs": [
        {
          "internalType": "address",
          "name": "_feeReceiverSetter",
          "type": "address"
        }
      ],
      "stateMutability": "nonpayable",
      "type": "constructor"
    },
    {
      "inputs": [],
      "name": "PoolFactory__IdenticalAddress",
      "type": "error"
    },
    {
      "inputs": [],
      "name": "PoolFactory__NotSetter",
      "type": "error"
    },
    {
      "inputs": [],
      "name": "PoolFactory__PoolExists",
      "type": "error"
    },
    {
      "inputs": [],
      "name": "PoolFactory__ZeroAddress",
      "type": "error"
    },
    {
      "anonymous": false,
      "inputs": [
        {
          "indexed": false,
          "internalType": "address",
          "name": "tokenA",
          "type": "address"
        },
        {
          "indexed": false,
          "internalType": "address",
          "name": "tokenB",
          "type": "address"
        },
        {
          "indexed": false,
          "internalType": "address",
          "name": "poolAddress",
          "type": "address"
        }
      ],
      "name": "PoolCreated",
      "type": "event"
    },
    {
      "inputs": [
        {
          "internalType": "address",
          "name": "_feeReceiverSetter",
          "type": "address"
        }
      ],
      "name": "addToFeeReceiverSetter",
      "outputs": [],
      "stateMutability": "nonpayable",
      "type": "function"
    },
    {
      "inputs": [
        {
          "internalType": "address",
          "name": "tokenA",
          "type": "address"
        },
        {
          "internalType": "address",
          "name": "tokenB",
          "type": "address"
        }
      ],
      "name": "createPool",
      "outputs": [
        {
          "internalType": "address",
          "name": "poolAddress",
          "type": "address"
        }
      ],
      "stateMutability": "nonpayable",
      "type": "function"
    },
    {
      "inputs": [
        {
          "internalType": "address",
          "name": "_tokenA",
          "type": "address"
        },
        {
          "internalType": "address",
          "name": "_tokenB",
          "type": "address"
        }
      ],
      "name": "getTokenPairs",
      "outputs": [
        {
          "internalType": "address",
          "name": "",
          "type": "address"
        }
      ],
      "stateMutability": "view",
      "type": "function"
    },
    {
      "inputs": [
        {
          "internalType": "address",
          "name": "_feeReceiverSetter",
          "type": "address"
        }
      ],
      "name": "removeFromFeeReceiverSetter",
      "outputs": [],
      "stateMutability": "nonpayable",
      "type": "function"
    },
    {
      "inputs": [
        {
          "internalType": "address",
          "name": "_feeReceiver",
          "type": "address"
        }
      ],
      "name": "setFeeReceiver",
      "outputs": [],
      "stateMutability": "nonpayable",
      "type": "function"
    }
  ],
  "transactionHash": "0x31b784e1ce1bc6ff598beeaae07995e47d1549ed72946186cc2b44d5bda1ca64",
  "args": [
    "0xf39Fd6e51aad88F6F4ce6aB8827279cffFb92266"
  ],
  "numDeployments": 1,
  "solcInputHash": "ff3fc59114d2ed592cdcd5ede45a1285",
  "bytecode": "0x608060405234801561001057600080fd5b50604051612f73380380612f73833981810160405281019061003291906100f2565b60018060008373ffffffffffffffffffffffffffffffffffffffff1673ffffffffffffffffffffffffffffffffffffffff16815260200190815260200160002060006101000a81548160ff0219169083151502179055505061011f565b600080fd5b600073ffffffffffffffffffffffffffffffffffffffff82169050919050565b60006100bf82610094565b9050919050565b6100cf816100b4565b81146100da57600080fd5b50565b6000815190506100ec816100c6565b92915050565b6000602082840312156101085761010761008f565b5b6000610116848285016100dd565b91505092915050565b612e458061012e6000396000f3fe60806040523480156200001157600080fd5b50600436106200005e5760003560e01c80634839702314620000635780634a70f02e14620000835780635ac40ab314620000b9578063e343361514620000d9578063efdcd974146200010f575b600080fd5b6200008160048036038101906200007b9190620008fe565b6200012f565b005b620000a160048036038101906200009b919062000930565b62000194565b604051620000b0919062000988565b60405180910390f35b620000d76004803603810190620000d19190620008fe565b6200023b565b005b620000f76004803603810190620000f1919062000930565b6200029f565b60405162000106919062000988565b60405180910390f35b6200012d6004803603810190620001279190620008fe565b620007ad565b005b62000139620007fa565b6000600160008373ffffffffffffffffffffffffffffffffffffffff1673ffffffffffffffffffffffffffffffffffffffff16815260200190815260200160002060006101000a81548160ff02191690831515021790555050565b6000600260008473ffffffffffffffffffffffffffffffffffffffff1673ffffffffffffffffffffffffffffffffffffffff16815260200190815260200160002060008373ffffffffffffffffffffffffffffffffffffffff1673ffffffffffffffffffffffffffffffffffffffff16815260200190815260200160002060009054906101000a900473ffffffffffffffffffffffffffffffffffffffff16905092915050565b62000245620007fa565b60018060008373ffffffffffffffffffffffffffffffffffffffff1673ffffffffffffffffffffffffffffffffffffffff16815260200190815260200160002060006101000a81548160ff02191690831515021790555050565b60008173ffffffffffffffffffffffffffffffffffffffff168373ffffffffffffffffffffffffffffffffffffffff160362000307576040517f4bea99d900000000000000000000000000000000000000000000000000000000815260040160405180910390fd5b6000808373ffffffffffffffffffffffffffffffffffffffff168573ffffffffffffffffffffffffffffffffffffffff16106200034657838562000349565b84845b91509150600073ffffffffffffffffffffffffffffffffffffffff168273ffffffffffffffffffffffffffffffffffffffff1603620003b4576040517f74b959e900000000000000000000000000000000000000000000000000000000815260040160405180910390fd5b600073ffffffffffffffffffffffffffffffffffffffff16600260008473ffffffffffffffffffffffffffffffffffffffff1673ffffffffffffffffffffffffffffffffffffffff16815260200190815260200160002060008373ffffffffffffffffffffffffffffffffffffffff1673ffffffffffffffffffffffffffffffffffffffff16815260200190815260200160002060009054906101000a900473ffffffffffffffffffffffffffffffffffffffff1673ffffffffffffffffffffffffffffffffffffffff1614620004b7576040517f423d793500000000000000000000000000000000000000000000000000000000815260040160405180910390fd5b600060405180602001620004cb9062000886565b6020820181038252601f19601f82011660405250905060008686604051602001620004f8929190620009f5565b604051602081830303815290604052805190602001209050808251602084016000f594508473ffffffffffffffffffffffffffffffffffffffff1663f09a401688886040518363ffffffff1660e01b81526004016200055992919062000a25565b600060405180830381600087803b1580156200057457600080fd5b505af115801562000589573d6000803e3d6000fd5b5050505084600260008673ffffffffffffffffffffffffffffffffffffffff1673ffffffffffffffffffffffffffffffffffffffff16815260200190815260200160002060008573ffffffffffffffffffffffffffffffffffffffff1673ffffffffffffffffffffffffffffffffffffffff16815260200190815260200160002060006101000a81548173ffffffffffffffffffffffffffffffffffffffff021916908373ffffffffffffffffffffffffffffffffffffffff16021790555084600260008573ffffffffffffffffffffffffffffffffffffffff1673ffffffffffffffffffffffffffffffffffffffff16815260200190815260200160002060008673ffffffffffffffffffffffffffffffffffffffff1673ffffffffffffffffffffffffffffffffffffffff16815260200190815260200160002060006101000a81548173ffffffffffffffffffffffffffffffffffffffff021916908373ffffffffffffffffffffffffffffffffffffffff1602179055506003859080600181540180825580915050600190039060005260206000200160009091909190916101000a81548173ffffffffffffffffffffffffffffffffffffffff021916908373ffffffffffffffffffffffffffffffffffffffff1602179055507f9c5d829b9b23efc461f9aeef91979ec04bb903feb3bee4f26d22114abfc7335b8484876040516200079b9392919062000a52565b60405180910390a15050505092915050565b620007b7620007fa565b806000806101000a81548173ffffffffffffffffffffffffffffffffffffffff021916908373ffffffffffffffffffffffffffffffffffffffff16021790555050565b6000600160003373ffffffffffffffffffffffffffffffffffffffff1673ffffffffffffffffffffffffffffffffffffffff16815260200190815260200160002060009054906101000a900460ff1690508062000883576040517fe9e1731800000000000000000000000000000000000000000000000000000000815260040160405180910390fd5b50565b6123808062000a9083390190565b600080fd5b600073ffffffffffffffffffffffffffffffffffffffff82169050919050565b6000620008c68262000899565b9050919050565b620008d881620008b9565b8114620008e457600080fd5b50565b600081359050620008f881620008cd565b92915050565b60006020828403121562000917576200091662000894565b5b60006200092784828501620008e7565b91505092915050565b600080604083850312156200094a576200094962000894565b5b60006200095a85828601620008e7565b92505060206200096d85828601620008e7565b9150509250929050565b6200098281620008b9565b82525050565b60006020820190506200099f600083018462000977565b92915050565b60008160601b9050919050565b6000620009bf82620009a5565b9050919050565b6000620009d382620009b2565b9050919050565b620009ef620009e982620008b9565b620009c6565b82525050565b600062000a038285620009da565b60148201915062000a158284620009da565b6014820191508190509392505050565b600060408201905062000a3c600083018562000977565b62000a4b602083018462000977565b9392505050565b600060608201905062000a69600083018662000977565b62000a78602083018562000977565b62000a87604083018462000977565b94935050505056fe60a06040523480156200001157600080fd5b506040518060400160405280600f81526020017f4c6971756964697479546f6b656e7300000000000000000000000000000000008152506040518060400160405280600281526020017f4c5000000000000000000000000000000000000000000000000000000000000081525081600390816200008f919062000358565b508060049081620000a1919062000358565b5050503373ffffffffffffffffffffffffffffffffffffffff1660808173ffffffffffffffffffffffffffffffffffffffff16815250506200043f565b600081519050919050565b7f4e487b7100000000000000000000000000000000000000000000000000000000600052604160045260246000fd5b7f4e487b7100000000000000000000000000000000000000000000000000000000600052602260045260246000fd5b600060028204905060018216806200016057607f821691505b60208210810362000176576200017562000118565b5b50919050565b60008190508160005260206000209050919050565b60006020601f8301049050919050565b600082821b905092915050565b600060088302620001e07fffffffffffffffffffffffffffffffffffffffffffffffffffffffffffffffff82620001a1565b620001ec8683620001a1565b95508019841693508086168417925050509392505050565b6000819050919050565b6000819050919050565b600062000239620002336200022d8462000204565b6200020e565b62000204565b9050919050565b6000819050919050565b620002558362000218565b6200026d620002648262000240565b848454620001ae565b825550505050565b600090565b6200028462000275565b620002918184846200024a565b505050565b5b81811015620002b957620002ad6000826200027a565b60018101905062000297565b5050565b601f8211156200030857620002d2816200017c565b620002dd8462000191565b81016020851015620002ed578190505b62000305620002fc8562000191565b83018262000296565b50505b505050565b600082821c905092915050565b60006200032d600019846008026200030d565b1980831691505092915050565b60006200034883836200031a565b9150826002028217905092915050565b6200036382620000de565b67ffffffffffffffff8111156200037f576200037e620000e9565b5b6200038b825462000147565b62000398828285620002bd565b600060209050601f831160018114620003d05760008415620003bb578287015190505b620003c785826200033a565b86555062000437565b601f198416620003e0866200017c565b60005b828110156200040a57848901518255600182019150602085019450602081019050620003e3565b868310156200042a578489015162000426601f8916826200031a565b8355505b6001600288020188555050505b505050505050565b608051611f256200045b6000396000610f580152611f256000f3fe608060405234801561001057600080fd5b50600436106101005760003560e01c806374a0f94b11610097578063ba9a7a5611610066578063ba9a7a56146102d9578063dd62ed3e146102f7578063f09a401614610327578063fff6cae91461034357610100565b806374a0f94b1461023b57806395d89b411461026c578063a9059cbb1461028a578063b9cf5005146102ba57610100565b8063313ce567116100d3578063313ce567146101a15780636a627842146101bf5780636d9a640a146101ef57806370a082311461020b57610100565b806306fdde0314610105578063095ea7b31461012357806318160ddd1461015357806323b872dd14610171575b600080fd5b61010d61034d565b60405161011a9190611963565b60405180910390f35b61013d60048036038101906101389190611a1e565b6103df565b60405161014a9190611a79565b60405180910390f35b61015b610402565b6040516101689190611aa3565b60405180910390f35b61018b60048036038101906101869190611abe565b61040c565b6040516101989190611a79565b60405180910390f35b6101a961043b565b6040516101b69190611b2d565b60405180910390f35b6101d960048036038101906101d49190611b48565b610444565b6040516101e69190611aa3565b60405180910390f35b61020960048036038101906102049190611b75565b610691565b005b61022560048036038101906102209190611b48565b61099d565b6040516102329190611aa3565b60405180910390f35b61025560048036038101906102509190611b48565b6109e5565b604051610263929190611bc8565b60405180910390f35b610274610dec565b6040516102819190611963565b60405180910390f35b6102a4600480360381019061029f9190611a1e565b610e7e565b6040516102b19190611a79565b60405180910390f35b6102c2610ea1565b6040516102d0929190611bc8565b60405180910390f35b6102e1610eb2565b6040516102ee9190611aa3565b60405180910390f35b610311600480360381019061030c9190611bf1565b610eb8565b60405161031e9190611aa3565b60405180910390f35b610341600480360381019061033c9190611bf1565b610f3f565b005b61034b61104a565b005b60606003805461035c90611c60565b80601f016020809104026020016040519081016040528092919081815260200182805461038890611c60565b80156103d55780601f106103aa576101008083540402835291602001916103d5565b820191906000526020600020905b8154815290600101906020018083116103b857829003601f168201915b5050505050905090565b6000806103ea61118c565b90506103f7818585611194565b600191505092915050565b6000600254905090565b60008061041761118c565b90506104248582856111a6565b61042f85858561123a565b60019150509392505050565b60006012905090565b6000806000610451610ea1565b915091506000600560009054906101000a900473ffffffffffffffffffffffffffffffffffffffff1673ffffffffffffffffffffffffffffffffffffffff166370a08231306040518263ffffffff1660e01b81526004016104b29190611ca0565b602060405180830381865afa1580156104cf573d6000803e3d6000fd5b505050506040513d601f19601f820116820180604052508101906104f39190611cd0565b90506000600660009054906101000a900473ffffffffffffffffffffffffffffffffffffffff1673ffffffffffffffffffffffffffffffffffffffff166370a08231306040518263ffffffff1660e01b81526004016105529190611ca0565b602060405180830381865afa15801561056f573d6000803e3d6000fd5b505050506040513d601f19601f820116820180604052508101906105939190611cd0565b9050600084836105a39190611d2c565b9050600084836105b39190611d2c565b905060006105bf610402565b9050600081036105fe576103e86105e083856105db9190611d60565b61132e565b6105ea9190611d2c565b97506105f960016103e86113a8565b610637565b61063487828561060e9190611d60565b6106189190611dd1565b8783856106259190611d60565b61062f9190611dd1565b61142a565b97505b60008811610671576040517f24217e5100000000000000000000000000000000000000000000000000000000815260040160405180910390fd5b61067b89896113a8565b6106858585611443565b50505050505050919050565b600083111580156106a3575060008211155b156106da576040517f5d125c4600000000000000000000000000000000000000000000000000000000815260040160405180910390fd5b6000806106e5610ea1565b91509150818511806106f657508084115b1561072d576040517f24217e5100000000000000000000000000000000000000000000000000000000815260040160405180910390fd5b6000806000600560009054906101000a900473ffffffffffffffffffffffffffffffffffffffff1690506000600660009054906101000a900473ffffffffffffffffffffffffffffffffffffffff1690506000891115610807578173ffffffffffffffffffffffffffffffffffffffff1663a9059cbb888b6040518363ffffffff1660e01b81526004016107c2929190611e02565b6020604051808303816000875af11580156107e1573d6000803e3d6000fd5b505050506040513d601f19601f820116820180604052508101906108059190611e57565b505b6000881115610890578073ffffffffffffffffffffffffffffffffffffffff1663a9059cbb888a6040518363ffffffff1660e01b815260040161084b929190611e02565b6020604051808303816000875af115801561086a573d6000803e3d6000fd5b505050506040513d601f19601f8201168201806040525081019061088e9190611e57565b505b8173ffffffffffffffffffffffffffffffffffffffff166370a08231306040518263ffffffff1660e01b81526004016108c99190611ca0565b602060405180830381865afa1580156108e6573d6000803e3d6000fd5b505050506040513d601f19601f8201168201806040525081019061090a9190611cd0565b93508073ffffffffffffffffffffffffffffffffffffffff166370a08231306040518263ffffffff1660e01b81526004016109459190611ca0565b602060405180830381865afa158015610962573d6000803e3d6000fd5b505050506040513d601f19601f820116820180604052508101906109869190611cd0565b925050506109948282611443565b50505050505050565b60008060008373ffffffffffffffffffffffffffffffffffffffff1673ffffffffffffffffffffffffffffffffffffffff168152602001908152602001600020549050919050565b6000806000806109f3610ea1565b915091506000600560009054906101000a900473ffffffffffffffffffffffffffffffffffffffff1690506000600660009054906101000a900473ffffffffffffffffffffffffffffffffffffffff16905060008273ffffffffffffffffffffffffffffffffffffffff166370a08231306040518263ffffffff1660e01b8152600401610a809190611ca0565b602060405180830381865afa158015610a9d573d6000803e3d6000fd5b505050506040513d601f19601f82011682018060405250810190610ac19190611cd0565b905060008273ffffffffffffffffffffffffffffffffffffffff166370a08231306040518263ffffffff1660e01b8152600401610afe9190611ca0565b602060405180830381865afa158015610b1b573d6000803e3d6000fd5b505050506040513d601f19601f82011682018060405250810190610b3f9190611cd0565b90506000610b4c8a61099d565b90506000610b58610402565b9050808483610b679190611d60565b610b719190611dd1565b9950808383610b809190611d60565b610b8a9190611dd1565b985060008a11158015610b9e575060008911155b15610bd5576040517f24217e5100000000000000000000000000000000000000000000000000000000815260040160405180910390fd5b610bdf3083611455565b8573ffffffffffffffffffffffffffffffffffffffff1663a9059cbb8c8c6040518363ffffffff1660e01b8152600401610c1a929190611e02565b6020604051808303816000875af1158015610c39573d6000803e3d6000fd5b505050506040513d601f19601f82011682018060405250810190610c5d9190611e57565b508473ffffffffffffffffffffffffffffffffffffffff1663a9059cbb8c8b6040518363ffffffff1660e01b8152600401610c99929190611e02565b6020604051808303816000875af1158015610cb8573d6000803e3d6000fd5b505050506040513d601f19601f82011682018060405250810190610cdc9190611e57565b508573ffffffffffffffffffffffffffffffffffffffff166370a08231306040518263ffffffff1660e01b8152600401610d169190611ca0565b602060405180830381865afa158015610d33573d6000803e3d6000fd5b505050506040513d601f19601f82011682018060405250810190610d579190611cd0565b93508473ffffffffffffffffffffffffffffffffffffffff166370a08231306040518263ffffffff1660e01b8152600401610d929190611ca0565b602060405180830381865afa158015610daf573d6000803e3d6000fd5b505050506040513d601f19601f82011682018060405250810190610dd39190611cd0565b9250610ddf8484611443565b5050505050505050915091565b606060048054610dfb90611c60565b80601f0160208091040260200160405190810160405280929190818152602001828054610e2790611c60565b8015610e745780601f10610e4957610100808354040283529160200191610e74565b820191906000526020600020905b815481529060010190602001808311610e5757829003601f168201915b5050505050905090565b600080610e8961118c565b9050610e9681858561123a565b600191505092915050565b600080600754600854915091509091565b6103e881565b6000600160008473ffffffffffffffffffffffffffffffffffffffff1673ffffffffffffffffffffffffffffffffffffffff16815260200190815260200160002060008373ffffffffffffffffffffffffffffffffffffffff1673ffffffffffffffffffffffffffffffffffffffff16815260200190815260200160002054905092915050565b3373ffffffffffffffffffffffffffffffffffffffff167f000000000000000000000000000000000000000000000000000000000000000073ffffffffffffffffffffffffffffffffffffffff1614610fc4576040517f0c18a1fc00000000000000000000000000000000000000000000000000000000815260040160405180910390fd5b81600560006101000a81548173ffffffffffffffffffffffffffffffffffffffff021916908373ffffffffffffffffffffffffffffffffffffffff16021790555080600660006101000a81548173ffffffffffffffffffffffffffffffffffffffff021916908373ffffffffffffffffffffffffffffffffffffffff1602179055505050565b61118a600560009054906101000a900473ffffffffffffffffffffffffffffffffffffffff1673ffffffffffffffffffffffffffffffffffffffff166370a08231306040518263ffffffff1660e01b81526004016110a89190611ca0565b602060405180830381865afa1580156110c5573d6000803e3d6000fd5b505050506040513d601f19601f820116820180604052508101906110e99190611cd0565b600660009054906101000a900473ffffffffffffffffffffffffffffffffffffffff1673ffffffffffffffffffffffffffffffffffffffff166370a08231306040518263ffffffff1660e01b81526004016111449190611ca0565b602060405180830381865afa158015611161573d6000803e3d6000fd5b505050506040513d601f19601f820116820180604052508101906111859190611cd0565b611443565b565b600033905090565b6111a183838360016114d7565b505050565b60006111b28484610eb8565b90507fffffffffffffffffffffffffffffffffffffffffffffffffffffffffffffffff81146112345781811015611224578281836040517ffb8f41b200000000000000000000000000000000000000000000000000000000815260040161121b93929190611e84565b60405180910390fd5b611233848484840360006114d7565b5b50505050565b600073ffffffffffffffffffffffffffffffffffffffff168373ffffffffffffffffffffffffffffffffffffffff16036112ac5760006040517f96c6fd1e0000000000000000000000000000000000000000000000000000000081526004016112a39190611ca0565b60405180910390fd5b600073ffffffffffffffffffffffffffffffffffffffff168273ffffffffffffffffffffffffffffffffffffffff160361131e5760006040517fec442f050000000000000000000000000000000000000000000000000000000081526004016113159190611ca0565b60405180910390fd5b6113298383836116ae565b505050565b60006003821115611395578190506000600160028461134d9190611dd1565b6113579190611ebb565b90505b8181101561138f5780915060028182856113749190611dd1565b61137e9190611ebb565b6113889190611dd1565b905061135a565b506113a3565b600082146113a257600190505b5b919050565b600073ffffffffffffffffffffffffffffffffffffffff168273ffffffffffffffffffffffffffffffffffffffff160361141a5760006040517fec442f050000000000000000000000000000000000000000000000000000000081526004016114119190611ca0565b60405180910390fd5b611426600083836116ae565b5050565b6000818310611439578161143b565b825b905092915050565b81600781905550806008819055505050565b600073ffffffffffffffffffffffffffffffffffffffff168273ffffffffffffffffffffffffffffffffffffffff16036114c75760006040517f96c6fd1e0000000000000000000000000000000000000000000000000000000081526004016114be9190611ca0565b60405180910390fd5b6114d3826000836116ae565b5050565b600073ffffffffffffffffffffffffffffffffffffffff168473ffffffffffffffffffffffffffffffffffffffff16036115495760006040517fe602df050000000000000000000000000000000000000000000000000000000081526004016115409190611ca0565b60405180910390fd5b600073ffffffffffffffffffffffffffffffffffffffff168373ffffffffffffffffffffffffffffffffffffffff16036115bb5760006040517f94280d620000000000000000000000000000000000000000000000000000000081526004016115b29190611ca0565b60405180910390fd5b81600160008673ffffffffffffffffffffffffffffffffffffffff1673ffffffffffffffffffffffffffffffffffffffff16815260200190815260200160002060008573ffffffffffffffffffffffffffffffffffffffff1673ffffffffffffffffffffffffffffffffffffffff1681526020019081526020016000208190555080156116a8578273ffffffffffffffffffffffffffffffffffffffff168473ffffffffffffffffffffffffffffffffffffffff167f8c5be1e5ebec7d5bd14f71427d1e84f3dd0314c0f7b2291e5b200ac8c7c3b9258460405161169f9190611aa3565b60405180910390a35b50505050565b600073ffffffffffffffffffffffffffffffffffffffff168373ffffffffffffffffffffffffffffffffffffffff16036117005780600260008282546116f49190611ebb565b925050819055506117d3565b60008060008573ffffffffffffffffffffffffffffffffffffffff1673ffffffffffffffffffffffffffffffffffffffff1681526020019081526020016000205490508181101561178c578381836040517fe450d38c00000000000000000000000000000000000000000000000000000000815260040161178393929190611e84565b60405180910390fd5b8181036000808673ffffffffffffffffffffffffffffffffffffffff1673ffffffffffffffffffffffffffffffffffffffff16815260200190815260200160002081905550505b600073ffffffffffffffffffffffffffffffffffffffff168273ffffffffffffffffffffffffffffffffffffffff160361181c5780600260008282540392505081905550611869565b806000808473ffffffffffffffffffffffffffffffffffffffff1673ffffffffffffffffffffffffffffffffffffffff168152602001908152602001600020600082825401925050819055505b8173ffffffffffffffffffffffffffffffffffffffff168373ffffffffffffffffffffffffffffffffffffffff167fddf252ad1be2c89b69c2b068fc378daa952ba7f163c4a11628f55a4df523b3ef836040516118c69190611aa3565b60405180910390a3505050565b600081519050919050565b600082825260208201905092915050565b60005b8381101561190d5780820151818401526020810190506118f2565b60008484015250505050565b6000601f19601f8301169050919050565b6000611935826118d3565b61193f81856118de565b935061194f8185602086016118ef565b61195881611919565b840191505092915050565b6000602082019050818103600083015261197d818461192a565b905092915050565b600080fd5b600073ffffffffffffffffffffffffffffffffffffffff82169050919050565b60006119b58261198a565b9050919050565b6119c5816119aa565b81146119d057600080fd5b50565b6000813590506119e2816119bc565b92915050565b6000819050919050565b6119fb816119e8565b8114611a0657600080fd5b50565b600081359050611a18816119f2565b92915050565b60008060408385031215611a3557611a34611985565b5b6000611a43858286016119d3565b9250506020611a5485828601611a09565b9150509250929050565b60008115159050919050565b611a7381611a5e565b82525050565b6000602082019050611a8e6000830184611a6a565b92915050565b611a9d816119e8565b82525050565b6000602082019050611ab86000830184611a94565b92915050565b600080600060608486031215611ad757611ad6611985565b5b6000611ae5868287016119d3565b9350506020611af6868287016119d3565b9250506040611b0786828701611a09565b9150509250925092565b600060ff82169050919050565b611b2781611b11565b82525050565b6000602082019050611b426000830184611b1e565b92915050565b600060208284031215611b5e57611b5d611985565b5b6000611b6c848285016119d3565b91505092915050565b600080600060608486031215611b8e57611b8d611985565b5b6000611b9c86828701611a09565b9350506020611bad86828701611a09565b9250506040611bbe868287016119d3565b9150509250925092565b6000604082019050611bdd6000830185611a94565b611bea6020830184611a94565b9392505050565b60008060408385031215611c0857611c07611985565b5b6000611c16858286016119d3565b9250506020611c27858286016119d3565b9150509250929050565b7f4e487b7100000000000000000000000000000000000000000000000000000000600052602260045260246000fd5b60006002820490506001821680611c7857607f821691505b602082108103611c8b57611c8a611c31565b5b50919050565b611c9a816119aa565b82525050565b6000602082019050611cb56000830184611c91565b92915050565b600081519050611cca816119f2565b92915050565b600060208284031215611ce657611ce5611985565b5b6000611cf484828501611cbb565b91505092915050565b7f4e487b7100000000000000000000000000000000000000000000000000000000600052601160045260246000fd5b6000611d37826119e8565b9150611d42836119e8565b9250828203905081811115611d5a57611d59611cfd565b5b92915050565b6000611d6b826119e8565b9150611d76836119e8565b9250828202611d84816119e8565b91508282048414831517611d9b57611d9a611cfd565b5b5092915050565b7f4e487b7100000000000000000000000000000000000000000000000000000000600052601260045260246000fd5b6000611ddc826119e8565b9150611de7836119e8565b925082611df757611df6611da2565b5b828204905092915050565b6000604082019050611e176000830185611c91565b611e246020830184611a94565b9392505050565b611e3481611a5e565b8114611e3f57600080fd5b50565b600081519050611e5181611e2b565b92915050565b600060208284031215611e6d57611e6c611985565b5b6000611e7b84828501611e42565b91505092915050565b6000606082019050611e996000830186611c91565b611ea66020830185611a94565b611eb36040830184611a94565b949350505050565b6000611ec6826119e8565b9150611ed1836119e8565b9250828201905080821115611ee957611ee8611cfd565b5b9291505056fea26469706673582212208615fac663c77c37db0e4580569ff58bba082543429b10ecdedb04cebc92b2e664736f6c63430008140033a264697066735822122004f3c8f461a2554be03bad4bb8b6759e7d84cedb05a2e66d8412b0cc8ea50a1764736f6c63430008140033",
  "devdoc": {
    "kind": "dev",
    "methods": {},
    "version": 1
  },
  "userdoc": {
    "kind": "user",
    "methods": {},
    "version": 1
  },
  "storageLayout": {
    "storage": [
      {
        "astId": 799,
        "contract": "contracts/core/Factory.sol:PoolFactory",
        "label": "feeReceiver",
        "offset": 0,
        "slot": "0",
        "type": "t_address"
      },
      {
        "astId": 803,
        "contract": "contracts/core/Factory.sol:PoolFactory",
        "label": "feeReceiverSetter",
        "offset": 0,
        "slot": "1",
        "type": "t_mapping(t_address,t_bool)"
      },
      {
        "astId": 809,
        "contract": "contracts/core/Factory.sol:PoolFactory",
        "label": "getPairs",
        "offset": 0,
        "slot": "2",
        "type": "t_mapping(t_address,t_mapping(t_address,t_address))"
      },
      {
        "astId": 812,
        "contract": "contracts/core/Factory.sol:PoolFactory",
        "label": "allPairs",
        "offset": 0,
        "slot": "3",
        "type": "t_array(t_address)dyn_storage"
      }
    ],
    "types": {
      "t_address": {
        "encoding": "inplace",
        "label": "address",
        "numberOfBytes": "20"
      },
      "t_array(t_address)dyn_storage": {
        "base": "t_address",
        "encoding": "dynamic_array",
        "label": "address[]",
        "numberOfBytes": "32"
      },
      "t_bool": {
        "encoding": "inplace",
        "label": "bool",
        "numberOfBytes": "1"
      },
      "t_mapping(t_address,t_address)": {
        "encoding": "mapping",
        "key": "t_address",
        "label": "mapping(address => address)",
        "numberOfBytes": "32",
        "value": "t_address"
      },
      "t_mapping(t_address,t_bool)": {
        "encoding": "mapping",
        "key": "t_address",
        "label": "mapping(address => bool)",
        "numberOfBytes": "32",
        "value": "t_bool"
      },
      "t_mapping(t_address,t_mapping(t_address,t_address))": {
        "encoding": "mapping",
        "key": "t_address",
        "label": "mapping(address => mapping(address => address))",
        "numberOfBytes": "32",
        "value": "t_mapping(t_address,t_address)"
      }
    }
  }
}